{
  "contractName": "Commend",
  "abi": [
    {
      "anonymous": false,
      "inputs": [
        {
          "indexed": false,
          "internalType": "address",
          "name": "nftContract",
          "type": "address"
        },
        {
          "indexed": false,
          "internalType": "uint256",
          "name": "tokenId",
          "type": "uint256"
        },
        {
          "indexed": false,
          "internalType": "address",
          "name": "seller",
          "type": "address"
        },
        {
          "indexed": false,
          "internalType": "address",
          "name": "owner",
          "type": "address"
        }
      ],
      "name": "NFTDeleted",
      "type": "event"
    },
    {
      "anonymous": false,
      "inputs": [
        {
          "indexed": false,
          "internalType": "address",
          "name": "nftContract",
          "type": "address"
        },
        {
          "indexed": false,
          "internalType": "uint256",
          "name": "tokenId",
          "type": "uint256"
        },
        {
          "indexed": false,
          "internalType": "address",
          "name": "seller",
          "type": "address"
        },
        {
          "indexed": false,
          "internalType": "address",
          "name": "owner",
          "type": "address"
        }
      ],
      "name": "NFTListed",
      "type": "event"
    },
    {
      "anonymous": false,
      "inputs": [
        {
          "indexed": false,
          "internalType": "address",
          "name": "nftContract",
          "type": "address"
        },
        {
          "indexed": false,
          "internalType": "uint256",
          "name": "tokenId",
          "type": "uint256"
        },
        {
          "indexed": false,
          "internalType": "address",
          "name": "seller",
          "type": "address"
        },
        {
          "indexed": false,
          "internalType": "address",
          "name": "owner",
          "type": "address"
        }
      ],
      "name": "NFTSold",
      "type": "event"
    },
    {
      "inputs": [
        {
          "internalType": "uint256",
          "name": "_tokenId",
          "type": "uint256"
        },
        {
          "internalType": "uint256",
          "name": "_commendCount",
          "type": "uint256"
        },
        {
          "internalType": "string",
          "name": "_description",
          "type": "string"
        },
        {
          "internalType": "string",
          "name": "_addressCommender",
          "type": "string"
        }
      ],
      "name": "giveCommend",
      "outputs": [],
      "stateMutability": "payable",
      "type": "function",
      "payable": true
    },
    {
      "inputs": [
        {
          "internalType": "uint256",
          "name": "_tokenId",
          "type": "uint256"
        }
      ],
      "name": "deleteNft",
      "outputs": [],
      "stateMutability": "nonpayable",
      "type": "function"
    },
    {
      "inputs": [
        {
          "internalType": "address",
          "name": "_nftContract",
          "type": "address"
        },
        {
          "internalType": "uint256",
          "name": "_tokenId",
          "type": "uint256"
        }
      ],
      "name": "listNft",
      "outputs": [],
      "stateMutability": "payable",
      "type": "function",
      "payable": true
    },
    {
      "inputs": [
        {
          "internalType": "address",
          "name": "_address",
          "type": "address"
        }
      ],
      "name": "hasListedNft",
      "outputs": [
        {
          "internalType": "bool",
          "name": "",
          "type": "bool"
        }
      ],
      "stateMutability": "view",
      "type": "function",
      "constant": true
    },
    {
      "inputs": [],
      "name": "getListedNfts",
      "outputs": [
        {
          "components": [
            {
              "internalType": "address",
              "name": "nftContract",
              "type": "address"
            },
            {
              "internalType": "uint256",
              "name": "tokenId",
              "type": "uint256"
            },
            {
              "internalType": "address payable",
              "name": "seller",
              "type": "address"
            },
            {
              "internalType": "address payable",
              "name": "owner",
              "type": "address"
            },
            {
              "internalType": "bool",
              "name": "listed",
              "type": "bool"
            },
            {
              "internalType": "uint256",
              "name": "commendCount",
              "type": "uint256"
            },
            {
              "internalType": "string[]",
              "name": "descriptions",
              "type": "string[]"
            },
            {
              "internalType": "string[]",
              "name": "addressCommender",
              "type": "string[]"
            }
          ],
          "internalType": "struct Commend.NFT[]",
          "name": "",
          "type": "tuple[]"
        }
      ],
      "stateMutability": "view",
      "type": "function",
      "constant": true
    },
    {
      "inputs": [],
      "name": "getMyNfts",
      "outputs": [
        {
          "components": [
            {
              "internalType": "address",
              "name": "nftContract",
              "type": "address"
            },
            {
              "internalType": "uint256",
              "name": "tokenId",
              "type": "uint256"
            },
            {
              "internalType": "address payable",
              "name": "seller",
              "type": "address"
            },
            {
              "internalType": "address payable",
              "name": "owner",
              "type": "address"
            },
            {
              "internalType": "bool",
              "name": "listed",
              "type": "bool"
            },
            {
              "internalType": "uint256",
              "name": "commendCount",
              "type": "uint256"
            },
            {
              "internalType": "string[]",
              "name": "descriptions",
              "type": "string[]"
            },
            {
              "internalType": "string[]",
              "name": "addressCommender",
              "type": "string[]"
            }
          ],
          "internalType": "struct Commend.NFT[]",
          "name": "",
          "type": "tuple[]"
        }
      ],
      "stateMutability": "view",
      "type": "function",
      "constant": true
    },
    {
      "inputs": [],
      "name": "getMyListedNfts",
      "outputs": [
        {
          "components": [
            {
              "internalType": "address",
              "name": "nftContract",
              "type": "address"
            },
            {
              "internalType": "uint256",
              "name": "tokenId",
              "type": "uint256"
            },
            {
              "internalType": "address payable",
              "name": "seller",
              "type": "address"
            },
            {
              "internalType": "address payable",
              "name": "owner",
              "type": "address"
            },
            {
              "internalType": "bool",
              "name": "listed",
              "type": "bool"
            },
            {
              "internalType": "uint256",
              "name": "commendCount",
              "type": "uint256"
            },
            {
              "internalType": "string[]",
              "name": "descriptions",
              "type": "string[]"
            },
            {
              "internalType": "string[]",
              "name": "addressCommender",
              "type": "string[]"
            }
          ],
          "internalType": "struct Commend.NFT[]",
          "name": "",
          "type": "tuple[]"
        }
      ],
      "stateMutability": "view",
      "type": "function",
      "constant": true
    }
  ],
  "bytecode": "0x608060405234801561001057600080fd5b506001600081905550612926806100286000396000f3fe6080604052600436106100705760003560e01c80638b38bd4d1161004e5780638b38bd4d146100e75780638d6cb3fb14610103578063b4d554a71461012e578063f6b157a81461016b57610070565b8063047b07bf14610075578063192027eb146100a05780631f4cc4db146100bc575b600080fd5b34801561008157600080fd5b5061008a610194565b6040516100979190611e57565b60405180910390f35b6100ba60048036038101906100b59190611ee5565b61067a565b005b3480156100c857600080fd5b506100d1610a9e565b6040516100de9190611e57565b60405180910390f35b61010160048036038101906100fc919061205a565b610ff6565b005b34801561010f57600080fd5b506101186111fa565b6040516101259190611e57565b60405180910390f35b34801561013a57600080fd5b50610155600480360381019061015091906120f9565b611615565b6040516101629190612135565b60405180910390f35b34801561017757600080fd5b50610192600480360381019061018d9190612150565b61166b565b005b606060006101a260026118f5565b90506000805b82811015610247573373ffffffffffffffffffffffffffffffffffffffff16600360006001846101d891906121ac565b815260200190815260200160002060030160009054906101000a900473ffffffffffffffffffffffffffffffffffffffff1673ffffffffffffffffffffffffffffffffffffffff1603610234578180610230906121e0565b9250505b808061023f906121e0565b9150506101a8565b5060008167ffffffffffffffff81111561026457610263611f2f565b5b60405190808252806020026020018201604052801561029d57816020015b61028a611972565b8152602001906001900390816102825790505b5090506000805b8481101561066f573373ffffffffffffffffffffffffffffffffffffffff16600360006001846102d491906121ac565b815260200190815260200160002060030160009054906101000a900473ffffffffffffffffffffffffffffffffffffffff1673ffffffffffffffffffffffffffffffffffffffff160361065c576003600060018361033291906121ac565b8152602001908152602001600020604051806101000160405290816000820160009054906101000a900473ffffffffffffffffffffffffffffffffffffffff1673ffffffffffffffffffffffffffffffffffffffff1673ffffffffffffffffffffffffffffffffffffffff168152602001600182015481526020016002820160009054906101000a900473ffffffffffffffffffffffffffffffffffffffff1673ffffffffffffffffffffffffffffffffffffffff1673ffffffffffffffffffffffffffffffffffffffff1681526020016003820160009054906101000a900473ffffffffffffffffffffffffffffffffffffffff1673ffffffffffffffffffffffffffffffffffffffff1673ffffffffffffffffffffffffffffffffffffffff1681526020016003820160149054906101000a900460ff161515151581526020016004820154815260200160058201805480602002602001604051908101604052809291908181526020016000905b8282101561054e5783829060005260206000200180546104c190612257565b80601f01602080910402602001604051908101604052809291908181526020018280546104ed90612257565b801561053a5780601f1061050f5761010080835404028352916020019161053a565b820191906000526020600020905b81548152906001019060200180831161051d57829003601f168201915b5050505050815260200190600101906104a2565b50505050815260200160068201805480602002602001604051908101604052809291908181526020016000905b8282101561062757838290600052602060002001805461059a90612257565b80601f01602080910402602001604051908101604052809291908181526020018280546105c690612257565b80156106135780601f106105e857610100808354040283529160200191610613565b820191906000526020600020905b8154815290600101906020018083116105f657829003601f168201915b50505050508152602001906001019061057b565b505050508152505083838151811061064257610641612288565b5b60200260200101819052508180610658906121e0565b9250505b8080610667906121e0565b9150506102a4565b508194505050505090565b610682611903565b600460003373ffffffffffffffffffffffffffffffffffffffff1673ffffffffffffffffffffffffffffffffffffffff16815260200190815260200160002060009054906101000a900460ff161561070f576040517f08c379a000000000000000000000000000000000000000000000000000000000815260040161070690612314565b60405180910390fd5b8173ffffffffffffffffffffffffffffffffffffffff166323b872dd3330846040518463ffffffff1660e01b815260040161074c93929190612352565b600060405180830381600087803b15801561076657600080fd5b505af115801561077a573d6000803e3d6000fd5b505050506107886002611952565b6040518061010001604052808373ffffffffffffffffffffffffffffffffffffffff1681526020018281526020013373ffffffffffffffffffffffffffffffffffffffff1681526020013073ffffffffffffffffffffffffffffffffffffffff16815260200160011515815260200160008152602001600067ffffffffffffffff81111561081957610818611f2f565b5b60405190808252806020026020018201604052801561084c57816020015b60608152602001906001900390816108375790505b508152602001600067ffffffffffffffff81111561086d5761086c611f2f565b5b6040519080825280602002602001820160405280156108a057816020015b606081526020019060019003908161088b5790505b508152506003600083815260200190815260200160002060008201518160000160006101000a81548173ffffffffffffffffffffffffffffffffffffffff021916908373ffffffffffffffffffffffffffffffffffffffff1602179055506020820151816001015560408201518160020160006101000a81548173ffffffffffffffffffffffffffffffffffffffff021916908373ffffffffffffffffffffffffffffffffffffffff16021790555060608201518160030160006101000a81548173ffffffffffffffffffffffffffffffffffffffff021916908373ffffffffffffffffffffffffffffffffffffffff16021790555060808201518160030160146101000a81548160ff02191690831515021790555060a0820151816004015560c08201518160050190805190602001906109dc9291906119fb565b5060e08201518160060190805190602001906109f99291906119fb565b509050506001600460003373ffffffffffffffffffffffffffffffffffffffff1673ffffffffffffffffffffffffffffffffffffffff16815260200190815260200160002060006101000a81548160ff0219169083151502179055507f232534bbd51d7cde87652214a8c8454ac134ea309ff79aed199c676bebca94b982823330604051610a8a9493929190612389565b60405180910390a1610a9a611968565b5050565b60606000610aac60026118f5565b90506000805b82811015610b8a573373ffffffffffffffffffffffffffffffffffffffff1660036000600184610ae291906121ac565b815260200190815260200160002060020160009054906101000a900473ffffffffffffffffffffffffffffffffffffffff1673ffffffffffffffffffffffffffffffffffffffff16148015610b63575060036000600183610b4391906121ac565b815260200190815260200160002060030160149054906101000a900460ff165b15610b77578180610b73906121e0565b9250505b8080610b82906121e0565b915050610ab2565b5060008167ffffffffffffffff811115610ba757610ba6611f2f565b5b604051908082528060200260200182016040528015610be057816020015b610bcd611972565b815260200190600190039081610bc55790505b5090506000805b84811015610feb573373ffffffffffffffffffffffffffffffffffffffff1660036000600184610c1791906121ac565b815260200190815260200160002060020160009054906101000a900473ffffffffffffffffffffffffffffffffffffffff1673ffffffffffffffffffffffffffffffffffffffff16148015610c98575060036000600183610c7891906121ac565b815260200190815260200160002060030160149054906101000a900460ff165b15610fd85760036000600183610cae91906121ac565b8152602001908152602001600020604051806101000160405290816000820160009054906101000a900473ffffffffffffffffffffffffffffffffffffffff1673ffffffffffffffffffffffffffffffffffffffff1673ffffffffffffffffffffffffffffffffffffffff168152602001600182015481526020016002820160009054906101000a900473ffffffffffffffffffffffffffffffffffffffff1673ffffffffffffffffffffffffffffffffffffffff1673ffffffffffffffffffffffffffffffffffffffff1681526020016003820160009054906101000a900473ffffffffffffffffffffffffffffffffffffffff1673ffffffffffffffffffffffffffffffffffffffff1673ffffffffffffffffffffffffffffffffffffffff1681526020016003820160149054906101000a900460ff161515151581526020016004820154815260200160058201805480602002602001604051908101604052809291908181526020016000905b82821015610eca578382906000526020600020018054610e3d90612257565b80601f0160208091040260200160405190810160405280929190818152602001828054610e6990612257565b8015610eb65780601f10610e8b57610100808354040283529160200191610eb6565b820191906000526020600020905b815481529060010190602001808311610e9957829003601f168201915b505050505081526020019060010190610e1e565b50505050815260200160068201805480602002602001604051908101604052809291908181526020016000905b82821015610fa3578382906000526020600020018054610f1690612257565b80601f0160208091040260200160405190810160405280929190818152602001828054610f4290612257565b8015610f8f5780601f10610f6457610100808354040283529160200191610f8f565b820191906000526020600020905b815481529060010190602001808311610f7257829003601f168201915b505050505081526020019060010190610ef7565b5050505081525050838381518110610fbe57610fbd612288565b5b60200260200101819052508180610fd4906121e0565b9250505b8080610fe3906121e0565b915050610be7565b508194505050505090565b60006003600086815260200190815260200160002090508060030160149054906101000a900460ff1661105e576040517f08c379a00000000000000000000000000000000000000000000000000000000081526004016110559061241a565b60405180910390fd5b8060020160009054906101000a900473ffffffffffffffffffffffffffffffffffffffff1673ffffffffffffffffffffffffffffffffffffffff166108fc859081150290604051600060405180830381858888f193505050506110f6576040517f08c379a00000000000000000000000000000000000000000000000000000000081526004016110ed90612486565b60405180910390fd5b806005018390806001815401808255809150506001900390600052602060002001600090919091909150908161112c9190612652565b5080600601829080600181540180825580915050600190039060005260206000200160009091909190915090816111639190612652565b5060076000868152602001908152602001600020339080600181540180825580915050600190039060005260206000200160009091909190916101000a81548173ffffffffffffffffffffffffffffffffffffffff021916908373ffffffffffffffffffffffffffffffffffffffff160217905550838160040160008282546111ec91906121ac565b925050819055505050505050565b6060600061120860026118f5565b9050600061121660016118f5565b826112219190612724565b905060008167ffffffffffffffff81111561123f5761123e611f2f565b5b60405190808252806020026020018201604052801561127857816020015b611265611972565b81526020019060019003908161125d5790505b5090506000805b8481101561160a576003600060018361129891906121ac565b815260200190815260200160002060030160149054906101000a900460ff16156115f757600360006001836112cd91906121ac565b8152602001908152602001600020604051806101000160405290816000820160009054906101000a900473ffffffffffffffffffffffffffffffffffffffff1673ffffffffffffffffffffffffffffffffffffffff1673ffffffffffffffffffffffffffffffffffffffff168152602001600182015481526020016002820160009054906101000a900473ffffffffffffffffffffffffffffffffffffffff1673ffffffffffffffffffffffffffffffffffffffff1673ffffffffffffffffffffffffffffffffffffffff1681526020016003820160009054906101000a900473ffffffffffffffffffffffffffffffffffffffff1673ffffffffffffffffffffffffffffffffffffffff1673ffffffffffffffffffffffffffffffffffffffff1681526020016003820160149054906101000a900460ff161515151581526020016004820154815260200160058201805480602002602001604051908101604052809291908181526020016000905b828210156114e957838290600052602060002001805461145c90612257565b80601f016020809104026020016040519081016040528092919081815260200182805461148890612257565b80156114d55780601f106114aa576101008083540402835291602001916114d5565b820191906000526020600020905b8154815290600101906020018083116114b857829003601f168201915b50505050508152602001906001019061143d565b50505050815260200160068201805480602002602001604051908101604052809291908181526020016000905b828210156115c257838290600052602060002001805461153590612257565b80601f016020809104026020016040519081016040528092919081815260200182805461156190612257565b80156115ae5780601f10611583576101008083540402835291602001916115ae565b820191906000526020600020905b81548152906001019060200180831161159157829003601f168201915b505050505081526020019060010190611516565b50505050815250508383815181106115dd576115dc612288565b5b602002602001018190525081806115f3906121e0565b9250505b8080611602906121e0565b91505061127f565b508194505050505090565b6000600460008373ffffffffffffffffffffffffffffffffffffffff1673ffffffffffffffffffffffffffffffffffffffff16815260200190815260200160002060009054906101000a900460ff169050919050565b611673611903565b60006003600083815260200190815260200160002090508060030160149054906101000a900460ff166116db576040517f08c379a00000000000000000000000000000000000000000000000000000000081526004016116d29061241a565b60405180910390fd5b3373ffffffffffffffffffffffffffffffffffffffff168160020160009054906101000a900473ffffffffffffffffffffffffffffffffffffffff1673ffffffffffffffffffffffffffffffffffffffff161461176d576040517f08c379a0000000000000000000000000000000000000000000000000000000008152600401611764906127ca565b60405180910390fd5b60036000838152602001908152602001600020600080820160006101000a81549073ffffffffffffffffffffffffffffffffffffffff021916905560018201600090556002820160006101000a81549073ffffffffffffffffffffffffffffffffffffffff02191690556003820160006101000a81549073ffffffffffffffffffffffffffffffffffffffff02191690556003820160146101000a81549060ff0219169055600482016000905560058201600061182a9190611a54565b60068201600061183a9190611a54565b50507f48359e48a1f5ed61bd9a9b6a18ff557528271bcb297f07813c282639197d138b8160000160009054906101000a900473ffffffffffffffffffffffffffffffffffffffff1682600101548360020160009054906101000a900473ffffffffffffffffffffffffffffffffffffffff168460030160009054906101000a900473ffffffffffffffffffffffffffffffffffffffff166040516118e1949392919061283f565b60405180910390a1506118f2611968565b50565b600081600001549050919050565b600260005403611948576040517f08c379a000000000000000000000000000000000000000000000000000000000815260040161193f906128d0565b60405180910390fd5b6002600081905550565b6001816000016000828254019250508190555050565b6001600081905550565b604051806101000160405280600073ffffffffffffffffffffffffffffffffffffffff16815260200160008152602001600073ffffffffffffffffffffffffffffffffffffffff168152602001600073ffffffffffffffffffffffffffffffffffffffff1681526020016000151581526020016000815260200160608152602001606081525090565b828054828255906000526020600020908101928215611a43579160200282015b82811115611a42578251829081611a329190612652565b5091602001919060010190611a1b565b5b509050611a509190611a75565b5090565b5080546000825590600052602060002090810190611a729190611a75565b50565b5b80821115611a955760008181611a8c9190611a99565b50600101611a76565b5090565b508054611aa590612257565b6000825580601f10611ab75750611ad6565b601f016020900490600052602060002090810190611ad59190611ad9565b5b50565b5b80821115611af2576000816000905550600101611ada565b5090565b600081519050919050565b600082825260208201905092915050565b6000819050602082019050919050565b600073ffffffffffffffffffffffffffffffffffffffff82169050919050565b6000611b4d82611b22565b9050919050565b611b5d81611b42565b82525050565b6000819050919050565b611b7681611b63565b82525050565b6000611b8782611b22565b9050919050565b611b9781611b7c565b82525050565b60008115159050919050565b611bb281611b9d565b82525050565b600081519050919050565b600082825260208201905092915050565b6000819050602082019050919050565b600081519050919050565b600082825260208201905092915050565b60005b83811015611c1e578082015181840152602081019050611c03565b60008484015250505050565b6000601f19601f8301169050919050565b6000611c4682611be4565b611c508185611bef565b9350611c60818560208601611c00565b611c6981611c2a565b840191505092915050565b6000611c808383611c3b565b905092915050565b6000602082019050919050565b6000611ca082611bb8565b611caa8185611bc3565b935083602082028501611cbc85611bd4565b8060005b85811015611cf85784840389528151611cd98582611c74565b9450611ce483611c88565b925060208a01995050600181019050611cc0565b50829750879550505050505092915050565b600061010083016000830151611d236000860182611b54565b506020830151611d366020860182611b6d565b506040830151611d496040860182611b8e565b506060830151611d5c6060860182611b8e565b506080830151611d6f6080860182611ba9565b5060a0830151611d8260a0860182611b6d565b5060c083015184820360c0860152611d9a8282611c95565b91505060e083015184820360e0860152611db48282611c95565b9150508091505092915050565b6000611dcd8383611d0a565b905092915050565b6000602082019050919050565b6000611ded82611af6565b611df78185611b01565b935083602082028501611e0985611b12565b8060005b85811015611e455784840389528151611e268582611dc1565b9450611e3183611dd5565b925060208a01995050600181019050611e0d565b50829750879550505050505092915050565b60006020820190508181036000830152611e718184611de2565b905092915050565b6000604051905090565b600080fd5b600080fd5b611e9681611b42565b8114611ea157600080fd5b50565b600081359050611eb381611e8d565b92915050565b611ec281611b63565b8114611ecd57600080fd5b50565b600081359050611edf81611eb9565b92915050565b60008060408385031215611efc57611efb611e83565b5b6000611f0a85828601611ea4565b9250506020611f1b85828601611ed0565b9150509250929050565b600080fd5b600080fd5b7f4e487b7100000000000000000000000000000000000000000000000000000000600052604160045260246000fd5b611f6782611c2a565b810181811067ffffffffffffffff82111715611f8657611f85611f2f565b5b80604052505050565b6000611f99611e79565b9050611fa58282611f5e565b919050565b600067ffffffffffffffff821115611fc557611fc4611f2f565b5b611fce82611c2a565b9050602081019050919050565b82818337600083830152505050565b6000611ffd611ff884611faa565b611f8f565b90508281526020810184848401111561201957612018611f2a565b5b612024848285611fdb565b509392505050565b600082601f83011261204157612040611f25565b5b8135612051848260208601611fea565b91505092915050565b6000806000806080858703121561207457612073611e83565b5b600061208287828801611ed0565b945050602061209387828801611ed0565b935050604085013567ffffffffffffffff8111156120b4576120b3611e88565b5b6120c08782880161202c565b925050606085013567ffffffffffffffff8111156120e1576120e0611e88565b5b6120ed8782880161202c565b91505092959194509250565b60006020828403121561210f5761210e611e83565b5b600061211d84828501611ea4565b91505092915050565b61212f81611b9d565b82525050565b600060208201905061214a6000830184612126565b92915050565b60006020828403121561216657612165611e83565b5b600061217484828501611ed0565b91505092915050565b7f4e487b7100000000000000000000000000000000000000000000000000000000600052601160045260246000fd5b60006121b782611b63565b91506121c283611b63565b92508282019050808211156121da576121d961217d565b5b92915050565b60006121eb82611b63565b91507fffffffffffffffffffffffffffffffffffffffffffffffffffffffffffffffff820361221d5761221c61217d565b5b600182019050919050565b7f4e487b7100000000000000000000000000000000000000000000000000000000600052602260045260246000fd5b6000600282049050600182168061226f57607f821691505b60208210810361228257612281612228565b5b50919050565b7f4e487b7100000000000000000000000000000000000000000000000000000000600052603260045260246000fd5b600082825260208201905092915050565b7f596f752063616e206f6e6c79206c697374206f6e65204e465400000000000000600082015250565b60006122fe6019836122b7565b9150612309826122c8565b602082019050919050565b6000602082019050818103600083015261232d816122f1565b9050919050565b61233d81611b42565b82525050565b61234c81611b63565b82525050565b60006060820190506123676000830186612334565b6123746020830185612334565b6123816040830184612343565b949350505050565b600060808201905061239e6000830187612334565b6123ab6020830186612343565b6123b86040830185612334565b6123c56060830184612334565b95945050505050565b7f4e4654206973206e6f74206c6973746564000000000000000000000000000000600082015250565b60006124046011836122b7565b915061240f826123ce565b602082019050919050565b60006020820190508181036000830152612433816123f7565b9050919050565b7f5472616e73666572206661696c65640000000000000000000000000000000000600082015250565b6000612470600f836122b7565b915061247b8261243a565b602082019050919050565b6000602082019050818103600083015261249f81612463565b9050919050565b60008190508160005260206000209050919050565b60006020601f8301049050919050565b600082821b905092915050565b6000600883026125087fffffffffffffffffffffffffffffffffffffffffffffffffffffffffffffffff826124cb565b61251286836124cb565b95508019841693508086168417925050509392505050565b6000819050919050565b600061254f61254a61254584611b63565b61252a565b611b63565b9050919050565b6000819050919050565b61256983612534565b61257d61257582612556565b8484546124d8565b825550505050565b600090565b612592612585565b61259d818484612560565b505050565b5b818110156125c1576125b660008261258a565b6001810190506125a3565b5050565b601f821115612606576125d7816124a6565b6125e0846124bb565b810160208510156125ef578190505b6126036125fb856124bb565b8301826125a2565b50505b505050565b600082821c905092915050565b60006126296000198460080261260b565b1980831691505092915050565b60006126428383612618565b9150826002028217905092915050565b61265b82611be4565b67ffffffffffffffff81111561267457612673611f2f565b5b61267e8254612257565b6126898282856125c5565b600060209050601f8311600181146126bc57600084156126aa578287015190505b6126b48582612636565b86555061271c565b601f1984166126ca866124a6565b60005b828110156126f2578489015182556001820191506020850194506020810190506126cd565b8683101561270f578489015161270b601f891682612618565b8355505b6001600288020188555050505b505050505050565b600061272f82611b63565b915061273a83611b63565b92508282039050818111156127525761275161217d565b5b92915050565b7f4f6e6c79207468652073656c6c65722063616e2064656c65746520746865204e60008201527f4654000000000000000000000000000000000000000000000000000000000000602082015250565b60006127b46022836122b7565b91506127bf82612758565b604082019050919050565b600060208201905081810360008301526127e3816127a7565b9050919050565b60006128056128006127fb84611b22565b61252a565b611b22565b9050919050565b6000612817826127ea565b9050919050565b60006128298261280c565b9050919050565b6128398161281e565b82525050565b60006080820190506128546000830187612334565b6128616020830186612343565b61286e6040830185612830565b61287b6060830184612830565b95945050505050565b7f5265656e7472616e637947756172643a207265656e7472616e742063616c6c00600082015250565b60006128ba601f836122b7565b91506128c582612884565b602082019050919050565b600060208201905081810360008301526128e9816128ad565b905091905056fea2646970667358221220eba40da83a82c23cb758422f46bc99622a91204109c8c1afc48b8162bf47ac0864736f6c63430008110033",
  "immutableReferences": {},
  "source": "// SPDX-License-Identifier: MIT\npragma solidity ^0.8.13;\n\nimport \"@openzeppelin/contracts/utils/Counters.sol\";\nimport \"@openzeppelin/contracts/token/ERC721/ERC721.sol\";\nimport \"@openzeppelin/contracts/security/ReentrancyGuard.sol\";\n\ncontract Commend is ReentrancyGuard {\n    using Counters for Counters.Counter;\n    Counters.Counter private _nftsSold;\n    Counters.Counter private _nftCount;\n\n    mapping(uint256 => NFT) private _idToNFT;\n    mapping(address => bool) private _hasListedNft;\n    mapping(address => uint256) private _sellerCommendCounts;\n    mapping(address => bool) private _hasGivenCommendation;\n    mapping(uint256 => address[]) private _nftCommendations;\n\n    struct NFT {\n        address nftContract;\n        uint256 tokenId;\n        address payable seller;\n        address payable owner;\n        bool listed;\n        uint256 commendCount;\n        string[] descriptions;\n        string[] addressCommender;\n    }\n\n    event NFTListed(\n        address nftContract,\n        uint256 tokenId,\n        address seller,\n        address owner\n    );\n\n    event NFTSold(\n        address nftContract,\n        uint256 tokenId,\n        address seller,\n        address owner\n    );\n\n    event NFTDeleted(\n        address nftContract,\n        uint256 tokenId,\n        address seller,\n        address owner\n    );\n\n    function giveCommend(\n        uint256 _tokenId,\n        uint256 _commendCount,\n        string memory _description,\n        string memory _addressCommender\n    ) public payable {\n        // Ensure that the NFT exists and is listed\n        NFT storage nft = _idToNFT[_tokenId];\n        require(nft.listed, \"NFT is not listed\");\n\n        // send the heat to the seller of the NFT\n        require(payable((nft.seller)).send(_commendCount), \"Transfer failed\");\n\n        // Append the new description to the existing array of descriptions\n        nft.descriptions.push(_description);\n        nft.addressCommender.push(_addressCommender);\n\n        // Append the address of the user who gave the commendation to the _nftCommendations array\n        _nftCommendations[_tokenId].push(msg.sender);\n\n        // Increment the commendCount of the NFT by the given amount\n        nft.commendCount += _commendCount;\n    }\n\n    // function to send commend to the owner of the NFTs, respectivly\n\n    function deleteNft(uint256 _tokenId) public nonReentrant {\n        // Ensure that the NFT exists and is listed\n        NFT storage nft = _idToNFT[_tokenId];\n        require(nft.listed, \"NFT is not listed\");\n\n        // Ensure that the seller of the NFT is the one calling this function\n        require(nft.seller == msg.sender, \"Only the seller can delete the NFT\");\n\n        // Remove the NFT from the marketplace\n        delete _idToNFT[_tokenId];\n\n        emit NFTDeleted(nft.nftContract, nft.tokenId, nft.seller, nft.owner);\n    }\n\n    // List the NFT on the marketplace\n    function listNft(\n        address _nftContract,\n        uint256 _tokenId\n    ) public payable nonReentrant {\n        require(!_hasListedNft[msg.sender], \"You can only list one NFT\");\n\n        IERC721(_nftContract).transferFrom(msg.sender, address(this), _tokenId);\n\n        _nftCount.increment();\n\n        _idToNFT[_tokenId] = NFT(\n            _nftContract,\n            _tokenId,\n            payable(msg.sender),\n            payable(address(this)),\n            true,\n            0,\n            new string[](0),\n            new string[](0)\n        );\n\n        _hasListedNft[msg.sender] = true;\n\n        emit NFTListed(_nftContract, _tokenId, msg.sender, address(this));\n    }\n\n    function hasListedNft(address _address) public view returns (bool) {\n        return _hasListedNft[_address];\n    }\n\n    function getListedNfts() public view returns (NFT[] memory) {\n        uint256 nftCount = _nftCount.current();\n        uint256 unsoldNftsCount = nftCount - _nftsSold.current();\n\n        NFT[] memory nfts = new NFT[](unsoldNftsCount);\n        uint256 nftsIndex = 0;\n        for (uint256 i = 0; i < nftCount; i++) {\n            if (_idToNFT[i + 1].listed) {\n                nfts[nftsIndex] = _idToNFT[i + 1];\n                nftsIndex++;\n            }\n        }\n        return nfts;\n    }\n\n    function getMyNfts() public view returns (NFT[] memory) {\n        uint256 nftCount = _nftCount.current();\n        uint256 myNftCount = 0;\n        for (uint256 i = 0; i < nftCount; i++) {\n            if (_idToNFT[i + 1].owner == msg.sender) {\n                myNftCount++;\n            }\n        }\n\n        NFT[] memory nfts = new NFT[](myNftCount);\n        uint256 nftsIndex = 0;\n        for (uint256 i = 0; i < nftCount; i++) {\n            if (_idToNFT[i + 1].owner == msg.sender) {\n                nfts[nftsIndex] = _idToNFT[i + 1];\n                nftsIndex++;\n            }\n        }\n        return nfts;\n    }\n\n    function getMyListedNfts() public view returns (NFT[] memory) {\n        uint256 nftCount = _nftCount.current();\n        uint256 myListedNftCount = 0;\n        for (uint256 i = 0; i < nftCount; i++) {\n            if (\n                _idToNFT[i + 1].seller == msg.sender && _idToNFT[i + 1].listed\n            ) {\n                myListedNftCount++;\n            }\n        }\n\n        NFT[] memory nfts = new NFT[](myListedNftCount);\n        uint256 nftsIndex = 0;\n        for (uint256 i = 0; i < nftCount; i++) {\n            if (\n                _idToNFT[i + 1].seller == msg.sender && _idToNFT[i + 1].listed\n            ) {\n                nfts[nftsIndex] = _idToNFT[i + 1];\n                nftsIndex++;\n            }\n        }\n        return nfts;\n    }\n}\n",
  "sourcePath": "/Users/chrisabdo/commend/commend-official/backend/contracts/Commend.sol",
  "compiler": {
    "name": "solc",
    "version": "0.8.17+commit.8df45f5f.Emscripten.clang"
  },
  "schemaVersion": "3.4.13",
  "updatedAt": "2023-03-09T02:49:32.696Z",
  "networkType": "ethereum",
  "devdoc": {
    "kind": "dev",
    "methods": {},
    "version": 1
  },
  "userdoc": {
    "kind": "user",
    "methods": {},
    "version": 1
  }
}